:1008D0002022C1ACBDD3B3C9B9A622200D0A002085
:1008E000BBF0D1E6B4ABB8D0C6F7B1BBBCA4BBEE8D
:1008F000200D0A004E6F7420636F6E6E6563746521
:0509000064200D0A0057
:1006A9001209BDE4F54E1208947BFF7A0879D0123D
:1006B9000958E54E60253083097BFF7A0879DF12F6
:1006C9000958AF4D1200268F08E508B40105120537
:1006D900D48008E508B402031201B320B2D4120091
:1006E9000E7F0A7E0012099FE54E60097BFF7A089A
:0A06F90079F4120958E4F54E80E18F
:10080600C7EBCAE4C8EBCBD9B6C8D6B528302D326B
:100816003030293A0D0A00CEDEB8C3D6B8C1EE0D87
:100826000A002D3E53706565647C616E676C657C5D
:100836000D0A2D3E2020002B44002B41007C200079
:0F0846000D0A00537472696E673A20000D0900A5
:1008940075A0FF7590FFC2A3D2B4D2B3D2B6D2B5BD
:1008A400752E46753500753650752F0075300AE47F
:1008B400F531F532F533F534D2AFC2A9C28C758C5B
:0C08C400FF758AF7438901D28CD2A9226B
:10000E00C2AFD2A2C2A3D2B4D2B3D2B6D2B5752EDB
:04001E0050D2AF22EB
:0C0A1400C2B6C2B4D2A3D2A2752E5722E3
:0C0A2000C2B5C2B3D2A3C2A2752E5322ED
:10090500E530640A452F7005D2A0D2A122C3E53097
:10091500940AE52F94005005C2A1D2A022D3E53058
:0D092500940AE52F94004004C2A0D2A12244
:10093200BF4F08752F0075300A8018BF4C0A05306A
:10094200E530700F052F800BBF5208E5301530706F
:0609520002152F02090549
:06063F008F4A8A4B8B4C30
:10064500E54A644C6006E54A645270557B077A00BA
:10065500E54C454B604BD3E54C9BE54B9A5042E44A
:10066500FBC3EB954CEA954B500CAF4A1209320B84
:10067500BB00010A80EBAF05AE041209D6E4FAFB14
:10068500C3EB954CEA954B5015E54AB44C047F52A3
:1006950080027F4C1209320BBB00010A80E27F0108
:0306A500227F00B1
:0106A800222F
:0F09E900AD36AC3512000E8E358F36AE04AF052D
:0109F80022DC
:10070300E4F53DF53E7BFF7A0879061209587B0034
:100713007A0079377D037C001207B2AA06AB07EB98
:100723004A602D900000C3E5829BE5839A5021AE79
:100733003DAF3E7C007D0A1202EDAD82ED25E02443
:1007430037F8E6FC08E62FF53EEE3CF53DA380D6F0
:08075300853D35853E367F012E
:01075B00227B
:100026008F0BE54E70030201B0E50B64586015E5D1
:100036000B645A600FE50B642B6009E50B642D60B9
:10004600030200E6E50BB42B20E5362401FFE43578
:1000560035FED3EF94C8EE940040030201AA05369C
:10006600E536704B05350201AAE50BB45A1EE53696
:10007600240AFFE43535FED3EF94C8EE940040031E
:100086000201AA740A2536F536E4804DE50BB42D37
:1000960021E53624FFFFE53534FFFED3EF94C8EEA5
:1000A600940040030201AAE53615367002153502A2
:1000B60001AAE50B645860030201AAE53624F6FF9F
:1000C600E53534FFFED3EF94C8EE940040030201F9
:1000D600AA74F62536F53674FF3535F5350201AACC
:1000E600E50BB428030203A7E50B120381017C305C
:1000F600018031018432018833018C34019035014D
:100106009436019837015241016642015644016115
:1001160046016C4801704C015A4F014D5001745113
:100126000140530133570178630000019CE52EB46A
:10013600530312000E120A14806AE52EB4570312F6
:10014600000E120A20805D12000E80587F4C800639
:100156007F5280027F4F12093280491208948044F0
:10016600E4F54E7F0222B2A5803AB2A48036B2A749
:100176008032B2A6802EB290802AB2918026B292A8
:100186008022B293801EB294801AB2958016B296DF
:100196008012B297800E7BFF7A08791D120958E407
:0D01A600F54EFF22E4F54E7F01227F00227E
:1005D4007BFF7A087928120958AF2E120A07E530F2
:1005E400452F6013C3E530940AE52F940050087B2F
:1005F400FF7A08793D8011D3E530940AE52F940001
:1006040040097BFF7A0879401209587BFF7A087900
:1006140043120958AF36AE351205597BFF7A087973
:1006240043120958AF30AE2F1205597BFF7A08796F
:0B063400461209587F027E000209D622
:1003A700E4F516F517F518F5197BFF7A0879491260
:1003B7000958E54DB4290BD3E5179409E5169400C0
:1003C7005028E54E601B740C2517F8A64D0517E558
:1003D700177002051614240CF8E6FF120A07E4F555
:1003E7004E7F027E001209D680C8E4F54E7BFF7A65
:1003F700087946120958851618851719E4F516F570
:1004070017C3E5179519E51695185034AF17AE16AB
:10041700120559740C2517F8E6FF1200260517E593
:10042700177002051614240CF8E6FF120A077BFF63
:100437007A0879521209587F327E001209D680C194
:020447007F0133
:010449002290
:03000B000204D616
:1004D600C0E0C0D0C28C758CFF758AF7D28C05340B
:1004E600E53470020533D39530E533952F5004C2B9
:1004F600B78002D2B7C3E534941EE53394004006B4
:100506007533007534000532E53270020531D39536
:1005160036E53195355014E52EB45704D2B5D2B32D
:10052600E52EB45318D2B6D2B48012E52EB45704D1
:10053600C2B5C2B3E52EB45304C2B6C2B4C3E532E3
:1005460094C8E53194004006753100753200D0D06C
:03055600D0E032C0
:10085500B9ECBCA3B3CCD0F2200A0D005369676E86
:10086500204F75740D0A004E4F205472616A6563FE
:10087500746F726965730D0A007C4C7C007C527C38
:0F088500007C2D527C0D0A007C2D4C7C0D0A004E
:1001B300750900750A2E1208947BFF7A0879551287
:1001C3000958753500753642E54E6023AF4D7E0004
:1001D300EF6442600B120026EF60141205D4800F07
:1001E300E4F54E12000E7BFF7A087961020958206C
:1001F300801220810F20820C7BFF7A08796C120910
:100203005812000EE52E64506005E52EB446093001
:100213008006120A141205D4E52EB457ABE50A641E
:100223002E4509704130811D20821A7F4C120932FC
:10023300750900750A4C7F087E001209D67BFF7A88
:1002430008797E801E30821E20811B7F5212093264
:10025300750900750A527F087E001209D67BFF7A62
:100263000879821209582080030201CB30810302EE
:1002730001CB3082030201CBE50A644C4509700DC2
:100283007F521209327BFF7A0879868016E50A6469
:1002930052450960030201CB7F4C1209327BFF7A7E
:0F02A30008798D120958750900750A2E0201CBD2
:03000300014D2A82
:1009D600E4FDFCC3ED9FEC9E5008000DBD00010C2C
:0209E60080F19E
:0109E80022EC
:10099F00D3EF9400EE940040147D6E7C00ED1D703B
:0D09AF00011CED4C70F7EF1F70E61E80E399
:0109BC002218
:1009BD00E4F54E43892075B810758BFD758DFD7569
:0909CD009850D28ED2ACD2AF22B8
:0E09F900E54DB40D06E4F54E7F01227F00228D
:0A075C008B458A4689478C488D4979
:10076600E4F54EFDFCC3ED9549EC9548502BE54E5E
:1007760060F31209F9EF6005AF05AE0422AB45AA96
:1007860046A9470DEDAE0470010C14F5828E83E583
:100796004D1202CBE4F54E80CCAB45AA46A9478D57
:0B07A600828C83E41202CBAE04AF058E
:0107B1002225
:0A07B2008B3F8A4089418C428D4341
:1007BC00E4F544F54EFEEEC39543E495425036E520
:1007CC004E60F31209F9EF6005EEFF7E0022E54D55
:1007DC0075F03084E5F0FDAB3FAA40A941AF060EA1
:1007EC0075F002EFA4F58285F083E48DF0120354CA
:0907FC00E4F54E80C1AF067E0059
:0108050022D0
:0D0A0700E54F640160FAEF754F01F599228B
:100958008B1A8A1B891CAB1AAA1BA91C1202B2602B
:1009680013051CE51C7002051B14F91202B2FF12D4
:050978000A0780E222E5
:04055900AB07AA063C
:10055D00900000EB4A70077F30120A07803FD3EB03
:10056D009400EA940040367C007D0AAF03AE02127F
:10057D0002FFED2430FFE43CFE0582E582700205AA
:10058D00831425E0241AF8A60608A6077C007D0A28
:10059D00AF03AE021202FFAA06AB0780C1E58215BA
:1005AD008270021583C3E583648094804018AF8206
:1005BD00EF25E0241AF808E6FF120A07E5821582F6
:0605CD0070E3158380DFDE
:0105D3002205
:0300230002097D52
:10097D00C0D030980EC2AFC29885994DA29A92B24E
:10098D00754E01309907C2AFC299754F00D2AFD0E5
:02099D00D03256
:0300000002044AAD
:0C044A00787FE4F6D8FD75814F02049124
:1002B200BB010689828A83E0225002E722BBFE024A
:0902C200E32289828A83E493227D
:1002CB00F8BB010DE58229F582E5833AF583E8F069
:1002DB00225006E92582C8F622BBFE05E92582C815
:0202EB00F222FD
:1002ED00EF8DF0A4A8F0CF8CF0A428CE8DF0A42E25
:0202FD00FE22DF
:1002FF00BC000BBE0029EF8DF084FFADF022E4CCE3
:10030F00F875F008EF2FFFEE33FEEC33FCEE9DECAB
:10031F00984005FCEE9DFE0FD5F0E9E4CEFD22EDF1
:10032F00F8F5F0EE8420D21CFEADF075F008EF2F3B
:10033F00FFED33FD4007985006D5F0F222C398FD2C
:05034F000FD5F0EA22C9
:10035400F8BB0111E58229F582E5833AF583E8F0DB
:10036400E5F0A3F0225009E92582C8F608A6F02298
:0D037400BBFE09E92582C8F2E5F008F2227F
:10038100D083D082F8E4937012740193700DA3A30B
:1003910093F8740193F5828883E47374029368601F
:0603A100EFA3A3A380DF1F
:100456000206A9E493A3F8E493A34003F68001F20D
:1004660008DFF48029E493A3F85407240CC8C333A7
:10047600C4540F4420C8834004F456800146F6DF76
:10048600E4800B0102040810204080900003E47E03
:10049600019360BCA3FF543F30E509541FFEE4936B
:1004A600A360010ECF54C025E060A840B8E493A332
:1004B600FAE493A3F8E493A3C8C582C8CAC583CA5D
:1004C600F0A3C8C582C8CAC583CADFE9DEE780BE15
:0100060000F9
:00000001FF
